:100000000C94C4000C94D9000C94D9000C94D90021
:100010000C94D9000C94D9000C94D9000C94D900FC
:100020000C94D9000C94D9000C94D9000C94D900EC
:100030000C94D9000C94D9000C94D9000C94D900DC
:100040000C94D9000C94D9000C94D9000C94D900CC
:100050000C94D9000C94D9000C94D9000C94D900BC
:100060000C94D9000C94D9006E616E00696E660024
:1000700000407A10F35A00A0724E18090010A5D45F
:10008000E80000E87648170000E40B54020000CABC
:100090009A3B000000E1F505000080969800000002
:1000A00040420F000000A086010000001027000061
:1000B0000000E803000000006400000000000A00E7
:1000C000000000000100000000002C76D888DC67EA
:1000D0004F0823DFC1DFAE59E1B1B796E5E3E45342
:1000E000C63AE651997696E8E6C28426EB898C9B5F
:1000F00062ED407C6FFCEFBC9C9F40F2BAA56FA5FF
:10010000F490055A2AF75C936B6CF9676DC11BFC80
:10011000E0E40D47FEF520E6B500D0ED902E03009B
:10012000943577050080841E080000204E0A0000E8
:1001300000C80C333333330F986E12831141EF8DA7
:100140002114893BE65516CFFEE6DB18D1844B38E7
:100150001BF77C1D901DA4BBE424203284725E2218
:100160008100C9F124ECA1E53D2750757420796F19
:10017000757220636F6E7374616E7420737472692C
:100180006E6720686572650011241FBECFEFD8E04E
:10019000DEBFCDBF11E0A0E0B1E0E0EAFCE002C0CC
:1001A00005900D92A430B107D9F70E94DC000C94A1
:1001B0004E060C940000000080E090E09093050152
:1001C0008093040125E030E030930701209306017D
:1001D0002BEF3FEF4FEF50E004C030930701209327
:1001E00006016091060170910701E0910401F09110
:1001F0000501E60FF71FF0930501E093040161E0AC
:100200008E179F075CF06170603059F360910601B2
:10021000709107018617970724F7DFCFE09104015B
:10022000F0910501E417F5070CF460E0A0E1B0E0FF
:10023000ECE1F1E00C949B047C011B016A01FC01E0
:1002400017821682838181FF6DC39E012F5F3F4F0E
:100250005901F7019381F10193FD859193FF8191FC
:100260001F01882309F4CCC2853239F493FD8591AE
:1002700093FF81911F01853239F4B70190E00E940C
:10028000C00536016301E5CF512C912C00E000320E
:1002900038F48B3209F190F48032F9F0833209F1AD
:1002A00007FD34C020ED280F2A3020F506FF1BC0C3
:1002B000FAE05F9E200D1124522E05C08D3279F098
:1002C000803371F70160F10193FD859193FF819176
:1002D0001F018111DCCF1AC002600460F4CF0860F6
:1002E000F2CF0061F0CF3AE0939E200D1124922EC0
:1002F0000062E9CF8E3221F406FD82C20064E3CFB2
:100300008C3611F40068DFCF8836E9F29BEB980F4A
:100310009330D8F50061805E06FD02C046E0542EA1
:10032000102F1F738536C1F5106417FF3EC08BE395
:10033000851508F442C091E0950D9C8727E03601B1
:1003400034E0630E711CF6016081718182819381BA
:100350000C85A5010E94D2046C01F981FE87F0FF93
:1003600002C0F3FF30C011FD30C0012F047012FD38
:1003700000E22E852C70422E09F464C00111D5C212
:10038000F3E0F91520F1412C36C09BE9980F93302A
:1003900008F076C10F7EC0CF863611F41068C5CF45
:1003A000552009F4C2CF5A94C0CFE7E0E51548F4D0
:1003B00027E037E0532E1C86C2CF27E0FCE3FC8702
:1003C000BECF252DF8CF0DE2D4CF0BE2D2CF83E004
:1003D000492C481A13FD08C0B70180E290E00E9442
:1003E000C0054A944110F8CF002329F0B701802FAF
:1003F00090E00E94C0053E8533FF15C098E6C92EE7
:1004000090E0D92E1071F6018491811111C0442021
:1004100009F438CFB70180E290E00E94C0054A9409
:10042000F6CF84E0D5CF8CE6C82E80E0D82EEACF78
:1004300011118052B70190E00E94C0058FEFC81AD9
:10044000D80AE1CF17FF7CC08C858C0DFE85F4FFA8
:1004500004C09A81913309F4815018160CF093C0AE
:100460008C87893010F028E02C8717FF91C01C146E
:100470001D040CF090C0C601019601110196552093
:1004800031F0252D30E02F5F3F4F820F931F292D34
:1004900030E08217930714F4492C481A812F897091
:1004A00011F441107BC0002329F0B701802F90E0A8
:1004B0000E94C00513FD02C0411077C017FF90C015
:1004C0004601D7FE02C0812C912CC60188199909DA
:1004D000F501E80FF91FF88BEF8796018C85281B33
:1004E00031093D872C87052D10E0119501951109E3
:1004F0009FEF8916990629F4B7018EE290E00E94D9
:10050000C005C814D9040CF457C0EC85FD85E81566
:10051000F9050CF051C0EF85F8898181F1E08F1A5F
:1005200091082F8538892F5F3F4F388B2F87801692
:1005300091060CF443C0B70190E00E94C005D8CFEB
:1005400016FD93CFE52DF0E0EC15FD0534F03CEF02
:10055000C3163FEFD3060CF010683296EA0DFB1D70
:10056000552019F08291803361F017FF7ECF81E032
:10057000850D8C87852D90E0C816D9063CF45C1853
:1005800074CF5A94EDCF91E09C876FCF512C6DCFF3
:1005900085E090E072CF81E090E06FCFB70180E21C
:1005A00090E00E94C0054A947CCFB70180E390E0C0
:1005B0000E94C0054A9480CF80E3B0CFC814D9040C
:1005C00041F49A81963350F4953319F43E8534FF03
:1005D00005C0B70190E00E94C00519CF81E3F9CFB3
:1005E0008A81813319F09E859F7E9E87B70190E0B6
:1005F0000E94C005511024C014FD38C085E690E06B
:10060000B7010E94C005D7FC06C0C114D10489F50A
:10061000EE85E4FF2EC0D194C194D1088DE2B701DC
:1006200090E00E94C00580E32AE0C216D1041CF5C8
:10063000B70190E00E94C005B701C601C096CBCFBC
:10064000B7018EE290E00E94C0055394539482E07B
:1006500001E0080FF501E80FF11D8081B70190E07E
:100660000E94C005802F5012F3CFC6CF85E490E0E2
:10067000C7CF8BE2D4CF8F5FFAE0CF1AD108D4CFA7
:100680008336C1F0833709F443C0833509F05EC077
:100690003601F2E06F0E711CF601C080D18006FFBA
:1006A0004BC0652D70E0C6010E94AA059D878C870E
:1006B00000680DC0360132E0630E711CF6018081C6
:1006C000898321E030E03D872C8765010F7703FDAA
:1006D00007C0892D90E02C853D852817390778F1D2
:1006E000492CEC85FD85EF2B09F491CEF60107FD31
:1006F000859107FF81916F01B70190E00E94C005CD
:1007000041104A948C859D8501979D878C87E9CF00
:10071000360132E0630E711CF601C080D18006FF05
:1007200008C0652D70E0C6010E94B5059D878C87C5
:10073000CDCF6FEF7FEFF7CF6FEF7FEFB4CFB70184
:1007400080E290E00E94C0059A94C3CF843611F0F5
:100750008936C1F5360107FF2AC0F4E06F0E711C1F
:10076000F6016081718182819381102F1F7697FF3E
:1007700008C090958095709561957F4F8F4F9F4FE2
:1007800010682AE030E0A5010E94F005C82ECA18C2
:1007900016FF59C0012F0E7FC51408F090C014FF3A
:1007A00004C012FD02C0012F0E7ED52C4EC0F2E017
:1007B0006F0E711CF60160817181072E000C880B91
:1007C000990BD3CF102F8537A9F41F7E2AE030E094
:1007D000360117FF2FC0F4E06F0E711CF601608127
:1007E000718182819381A5010E94F005C82ECA18EB
:1007F0001F77CECF197F8F36D1F048F4883591F02E
:10080000F701868197816096E2E10C94B704803706
:1008100039F08837A9F714FD146020E130E0D8CF13
:100820001061F9CF04FD166020E132E0D1CF28E05D
:1008300030E0CECFF2E06F0E711CF6016081718165
:1008400080E090E0D0CFDC2C012F04FF41C0FE01FE
:10085000EC0DF11D80818033A1F5097EF02FF87039
:100860004F2E03FD43C000FF3DC05C2CD91410F493
:10087000590C5D1804FF42C0B70180E390E00E946C
:10088000C00502FF07C001FD36C088E790E0B70150
:100890000E94C005C51408F43EC0CA940C2D10E097
:1008A0000F5F1F4F0A0D1B1DF80182918F01B701C9
:1008B00090E00E94C0050A151B05B1F7A8CDDC2CFD
:1008C000C4CF02FD02C0D394C9CFD394D394C6CF72
:1008D000802F867819F2F7CFB70180E290E00E946E
:1008E000C005D394D914C0F3412CC4CFD914E0F778
:1008F000492C4D18BFCF88E590E0C9CF802F86786E
:1009000049F201FF06C08BE207FD8DE2B70190E0DE
:10091000BFCF80E2F9CFB70180E390E00E94C0052D
:100920005A94B8CF8FEF9FEF6ECF24E0291508F4CB
:1009300078CD412C5BCD2F923F924F925F926F9278
:100940007F928F929F92AF92BF92CF92DF92EF925F
:10095000FF920F931F93CF93DF93CDB7DEB7CA1BE0
:10096000DB0B0FB6F894DEBF0FBECDBF09942A880B
:10097000398848885F846E847D848C849B84AA84B3
:10098000B984C884DF80EE80FD800C811B81AA8140
:10099000B981CE0FD11D0FB6F894DEBF0FBECDBF0B
:1009A000ED010895283008F027E03327DA01990F88
:1009B000311D87FD916000966105710539F4326043
:1009C0002E5F3D9330E32A95E1F708959F3F30F085
:1009D00080387105610509F03C5F3C5F3D939130C3
:1009E00008F08068911DDF93CF931F930F93FF92C0
:1009F000EF92192F987F9695E92F96959695E90F86
:100A0000FF27E653FF4F99273327EE24FF24A70142
:100A1000E70105900894079428F4360FE71EF81EA6
:100A2000491F511D660F771F881F991F0694A1F754
:100A30000590079428F4E70EF81E491F561FC11DA4
:100A4000770F881F991F661F0694A1F705900794DA
:100A500028F4F80E491F561FC71FD11D880F991F74
:100A6000661F771F0694A1F70590079420F4490F9D
:100A7000561FC71FD81F990F661F771F881F069420
:100A8000A9F784911095177041F0D695C7955795A1
:100A90004795F794E7941A95C1F7E0E7F0E068947A
:100AA0001590159135916591959105907FE273951B
:100AB000E118F10A430B560BC90BD009C0F7E10C42
:100AC000F11E431F561FC91FD01D7EF4703311F451
:100AD0008A95E6CFE894015030F0080F0AF4002719
:100AE000021708F4202F2395022F7A3328F079E398
:100AF0007D932A95E9F710C07D932A9589F606948F
:100B000097956795379517951794E118F10A430B58
:100B1000560BC90BD00998F023957E9173957A33C3
:100B200008F070E37C932013B8F77E9170617D9399
:100B300030F0839571E37D9370E32A95E1F71124FA
:100B4000EF90FF900F911F91CF91DF91992787FD33
:100B500090950895FC010590615070400110D8F700
:100B6000809590958E0F9F1F0895FC0161507040F5
:100B700001900110D8F7809590958E0F9F1F0895D2
:100B80000F931F93CF93DF93182F092FEB018B81C6
:100B900081FD09C01FEF0FEF812F902FDF91CF91C3
:100BA0001F910F91089582FF14C02E813F818C8187
:100BB0009D81281739073CF4E881F981CF0101961E
:100BC0009983888310838E819F8101969F838E8372
:100BD000E3CFE885F985812F0995892BA1F3DACF39
:100BE000FA01AA27283051F1203181F1E8946F935E
:100BF0006E7F6E5F7F4F8F4F9F4FAF4FB1E03ED004
:100C0000B4E03CD0670F781F891F9A1FA11D680FA1
:100C1000791F8A1F911DA11D6A0F711D811D911DD4
:100C2000A11D20D009F468943F912AE0269F112449
:100C30003019305D3193DEF6CF010895462F4770AD
:100C4000405D4193B3E00FD0C9F7F6CF462F4F7008
:100C5000405D4A3318F0495D31FD4052419302D066
:100C6000A9F7EACFB4E0A69597958795779567950C
:100C7000BA95C9F700976105710508959B01AC010C
:100C80000A2E06945795479537952795BA95C9F733
:100C9000620F731F841F951FA01D0895F894FFCF46
:040CA0006A010100E4
:00000001FF
