:100000000C94B6000C9422030C944B030C94DE0069
:100010000C94DE000C94DE000C94DE000C94DE00E8
:100020000C94DE000C94DE000C94DE000C94DE00D8
:100030000C94DE000C94DE000C94DE000C94DE00C8
:100040000C942E040C94DE000C9445040C94DE00F9
:100050000C94DE000C94E2070C94DE000C94DE009D
:100060000C94DE000C94DE006E616E00696E66001A
:1000700000407A10F35A00A0724E18090010A5D45F
:10008000E80000E87648170000E40B54020000CABC
:100090009A3B000000E1F505000080969800000002
:1000A00040420F000000A086010000001027000061
:1000B0000000E803000000006400000000000A00E7
:1000C000000000000100000000002C76D888DC67EA
:1000D0004F0823DFC1DFAE59E1B1B796E5E3E45342
:1000E000C63AE651997696E8E6C28426EB898C9B5F
:1000F00062ED407C6FFCEFBC9C9F40F2BAA56FA5FF
:10010000F490055A2AF75C936B6CF9676DC11BFC80
:10011000E0E40D47FEF520E6B500D0ED902E03009B
:10012000943577050080841E080000204E0A0000E8
:1001300000C80C333333330F986E12831141EF8DA7
:100140002114893BE65516CFFEE6DB18D1844B38E7
:100150001BF77C1D901DA4BBE424203284725E2218
:100160008100C9F124ECA1E53D27D70B11241FBE66
:10017000CFEFD8E0DEBFCDBF11E0A0E0B1E0EEEE02
:10018000FBE102C005900D92A232B107D9F722E03F
:10019000A2E2B1E001C01D92A136B207E1F710E082
:1001A000C6EBD0E004C02197FE010E94430CC53B82
:1001B000D107C9F70E94E0000C94F50D0C940000E3
:1001C000AF92BF92CF92DF92EF92FF920F931F9365
:1001D00082E08093220180E895E20E946E01809186
:1001E000220160910B010E94540181E090E06C01BA
:1001F00004EF11E080E090E05C010AC00E94F3018E
:10020000282FC701622F0E94F501C8010E94120128
:1002100087E00E94360181708030760179F77501A0
:10022000EDCF00000E94A40308950E94B803089532
:100230000E94D00308950E94D50340E050E09C0145
:10024000BA01CA0108950E94D80340E050E09C0121
:10025000BA01CA0108950E94F40340E050E09C01F5
:10026000BA01CA0108950E94B30308950E9487024B
:100270000895833051F0853041F0863031F0893077
:1002800021F08A3011F08B3059F46170603021F028
:100290006FEF0E94B006089560E00E94B0060895D6
:1002A00061700E94A002089561700E94E1020895A9
:1002B0000E94B00608950E94B30708950E941A088C
:1002C00008950E94740308950E94840308950E9473
:1002D0008A0308950E949E03089500000E948704E7
:1002E000089581E008950F93017088EE93E0B901BD
:1002F000402F0E94C4040F9108950E94BD040895E8
:100300001F93142F0E94F4039C01117088EE93E058
:10031000B901412F0E94E5041F9108951F93142FE6
:100320000E94D8039C01117088EE93E0B901412F1F
:100330000E94E5041F91089581E008950E948E01B6
:10034000089581E00895262FAC0155954795559560
:100350004795559547955595479555954795559585
:100360004795559547955595479555954795559575
:100370004795559547955595479555954795559565
:10038000479555954795BC01CA01422F0E948E01A1
:10039000089581E00895262F682F782F770F770B27
:1003A000CB01959587959595879595958795959585
:1003B0008795959587959595879595958795959525
:1003C0008795959587959595879595958795959515
:1003D0008795959587959595879595958795422FBE
:1003E0000E948E01089581E00895262F40E050E09C
:1003F000BC01CA01422F0E948E01089581E0089538
:10040000262F682F772780E090E0422F0E948E01F0
:10041000089581E008950E94800108950E940505D5
:1004200008950E941005089541700E942D050895B9
:1004300081E00E944F05089580E00E944F050895D5
:100440000E945905089581E0089561700E945F053A
:1004500040E050E09C01BA01CA01089581E008958E
:1004600081E008950F935E2D0170517088EE93E046
:10047000B90141E0202F052F0E948A0540E050E09D
:100480009C01BA01CA010F9108950E94CC050895FC
:100490000E94D50508950E94DD0508950E94F90582
:1004A00008950E940A0640E050E09C01BA01CA018A
:1004B00008950E9434060895A7010E944A060895EF
:1004C00081E008954E2D4170B8010E947006089594
:1004D0008830A0F08E3050F08531B8F492EF980F4C
:1004E00081E001C0880F9A95EAF7089598EF980F78
:1004F00081E001C0880F9A95EAF7089591E001C064
:10050000990F8A95EAF7892F089580E00895883039
:1005100058F499B121E030E001C0220F8A95EAF742
:10052000922381E029F008958E3020F0853128F063
:1005300080E0089593B18850EDCF96B18E50EACF08
:10054000883060F421E030E001C0220F8A95EAF79C
:10055000662349F18BB1282B2BB908958E3088F48E
:10056000885021E030E0A90102C0440F551F8A9550
:10057000E2F7CA0161111CC095B18095892385B944
:1005800008958531E8F78E5021E030E0A90102C0DE
:10059000440F551F8A95E2F7CA01662369F098B1A6
:1005A000892B88B908958BB1209528232BB90895FC
:1005B00095B1892B85B9089598B18095892388B91B
:1005C0000895883060F421E030E001C0220F8A9560
:1005D000EAF7662349F18AB1282B2AB908958E30AB
:1005E00088F4885021E030E0A90102C0440F551F73
:1005F0008A95E2F7CA0161111CC094B180958923E4
:1006000084B908958531E8F78E5021E030E0A901E2
:1006100002C0440F551F8A95E2F7CA01662369F0AC
:1006200097B1892B87B908958AB1209528232AB9D3
:10063000089594B1892B84B9089597B18095892341
:1006400087B908951F920F920FB60F9211242F931E
:100650003F934F935F936F937F938F939F93AF934A
:10066000BF93EF93FF93E0912501F091260130971E
:1006700009F00995FF91EF91BF91AF919F918F91F3
:100680007F916F915F914F913F912F910F900FBE8E
:100690000F901F9018951F920F920FB60F92112472
:1006A0002F933F934F935F936F937F938F939F937A
:1006B000AF93BF93EF93FF93E0912301F091240157
:1006C000309709F00995FF91EF91BF91AF919F91FC
:1006D0008F917F916F915F914F913F912F910F90EB
:1006E0000FBE0F901F9018957093260160932501FF
:1006F000E9E6F0E090819C7F908390818370892B64
:100700008083E89A7894089510922601109225012A
:10071000E89808957093240160932301E9E6F0E0DE
:100720009081937F9083208134E0839FC0011124C6
:100730008C70822B8083E99A78940895109224011A
:1007400010922301E9980895009761F020E030E0CD
:1007500040EA5FE0FA013197F1F72F5F3F4F8217D0
:100760009307C1F70895809127019091280108957A
:10077000E0913801EF3791F091E09E0F90933801AE
:100780000E2E000CFF0BE75CFE4F8083E92F990FC4
:10079000FF0BE75CFE4F108281E0089580E0089532
:1007A0001092380110923901089589E391E008957B
:1007B0009F938F937F936F9383E191E09F938F93A8
:1007C0001F928FE08F9389E291E09F938F930E9415
:1007D000670D8DB79EB70A960FB6F8949EBF0FBEF1
:1007E0008DBF89E291E008959F938F937F936F93DC
:1007F00087E191E09F938F931F928FE08F9389E21F
:1008000091E09F938F930E94670D8DB79EB70A96D4
:100810000FB6F8949EBF0FBE8DBF89E291E0089598
:100820009F938F937F936F931F924F938CE191E0EF
:100830009F938F931F928FE08F9389E291E09F9314
:100840008F930E94670D8DB79EB70C960FB6F894E4
:100850009EBF0FBE8DBF89E291E008951F920F9257
:100860000FB60F9211248F939F938091270190913F
:100870002801019690932801809327019F918F91E1
:100880000F900FBE0F901F9018951F920F920FB6EA
:100890000F9211242F938F939F93EF93FF93809147
:1008A000B90181111EC0E091BA0181E08E0F8093E1
:1008B000BA019091C6000E2E000CFF0BE454FE4FBF
:1008C0009083082E000C990B8F77907897FD13C0BA
:1008D0008093BA0191E02091BB01281390E090939E
:1008E000B901FF91EF919F918F912F910F900FBEC2
:1008F0000F901F901895019780689F6F01968093C5
:10090000BA0191E02091BB012813E8CFE8CF9C0108
:10091000990F440B550B220F331F441F551F220FF5
:10092000331F441F551F220F331F441F551F220F13
:10093000331F441F551F60E074E284EF90E00E9473
:10094000EA0BBA01A9014150510961097109BB279C
:1009500077FDBA95A72F962F852F8093C5004093DA
:10096000C400E2ECF0E0808186608083E1ECF0E09E
:10097000808188698083789408959091C00095FF64
:10098000FCCF8093C60008950097A1F0FB0124914D
:10099000222381F03196680F791F9091C00095FF56
:1009A000FCCF2093C6006E177F0721F0249131966B
:1009B0002111F3CF442341F08091C00085FFFCCF8B
:1009C0008AE08093C60008950895009799F0FB018E
:1009D0002081222379F03196680F791F9091C00011
:1009E00095FFFCCF2093C600E617F70719F0219179
:1009F0002111F4CF442341F08091C00085FFFCCF4A
:100A00008AE08093C600089508959091BB0180917B
:100A1000BA01981711F081E008958091B901089505
:100A20002091B9019091BB018091BA01981791F082
:100A30009FB7F894E091BB0181E08E0F8093BB01DA
:100A40000E2E000CFF0BE454FE4F80811092B90172
:100A50009FBF08952111ECCFFFCF0F931F93CF932A
:100A6000DF93C82FD62F142F00911001602F8BE039
:100A70000E94E102602F8DE00E94E102C370C06518
:100A800080E2189FA0011124C42BDD0FDD0FDC7064
:100A9000CD2BCCBDDF91CF911F910F910895811186
:100AA00004C08DB58E7F8DBD08958DB581608DBDDF
:100AB00008958EBD0DB407FEFDCF8EB50895009745
:100AC00021F1E1E4F2E020E030E01EBC0DB407FECD
:100AD000FDCF4EB520323105DCF02F5F3F4F319610
:100AE0008217930791F70197662329F08F319105BB
:100AF00028F01092600281E492E008958F5B9D4F90
:100B0000FC01108281E492E008956111F2CFF3CFED
:100B10004083E3CF0F93CF93DF93EC01892BB9F19F
:100B2000A1E4B2E0FB0130E060E070E0442319F1A1
:100B30003081311120C0211110C090E09EBD0DB454
:100B400007FEFDCF8EB56032710524F16F5F7F4FD8
:100B5000119631966C177D0749F7002331F0CB01D0
:100B600001974F9750F01092600281E492E0DF917C
:100B7000CF910F910895932FE1CF605C7D4FFB01E2
:100B8000108281E492E0DF91CF910F9108950111DD
:100B9000EACFEBCF8C93DACF63706093B900809388
:100BA000B80084E08093BC00089584EA8093BC0080
:100BB0008091BC0087FFFCCF089584E98093BC003E
:100BC00008958093BB0084E88093BC008091BC00B2
:100BD00087FFFCCF0895811106C084EC8093BC0090
:100BE0008091BB00089584E88093BC008091BB0095
:100BF0000895880F880F8093BB0084E88093BC0021
:100C00008091BC0087FFFCCF84EC8093BC00809176
:100C1000BB000895880F880F8093BB0084E8809301
:100C2000BC008091BC0087FFFCCF70E061157105AE
:100C300091F0E1E4F2E080E090E034E8019686177C
:100C400097071CF48032910549F484EC8093BC0032
:100C50008091BB00808381E492E008953093BC00D2
:100C60002091BB002193EACF90E0880F991F8093D9
:100C7000BB0084E88093BC008091BC0087FFFCCF60
:100C80006093BB0084E88093BC008091BC0087FF28
:100C9000FCCF089590E0880F991F8093BB0084E8F3
:100CA0008093BC008091BC0087FFFCCF611571056B
:100CB000B1F0FA018081882391F03196640F751F9D
:100CC00094E88093BB009093BC008091BC0087FFA8
:100CD000FCCF6E177F0719F081918111F2CF089533
:100CE0001F93CF93DF93EB01142F90E0880F991F90
:100CF0008093BB0084E88093BC008091BC0087FF98
:100D0000FCCF68EE73E0CE010E942C0DBC01892B54
:100D1000B9F0FE019491992399F031966C0F7D1FE3
:100D200084E89093BB008093BC009091BC0097FF37
:100D3000FCCFE617F70721F0949131969111F1CF8E
:100D4000112351F08AE08093BB0084E88093BC00BB
:100D50008091BC0087FFFCCFDF91CF911F91089558
:100D6000CF93DF93C82FD62F609110010E94E1022C
:100D7000C63009F45BC050F0CA30B9F0CB3009F48A
:100D800046C0C93021F1DF91CF910895C33089F178
:100D9000C530C9F784B5DD2309F452C0DF3F09F43B
:100DA0009EC0806284BDD8BDEECF80918000DD23DF
:100DB00009F47BC0DF3F09F485C080628093800026
:100DC0006D2F70E070938B0060938A00DCCF809170
:100DD0008000DD2309F45CC0DF3F09F494C0806823
:100DE000809380006D2F70E070938900609388007D
:100DF000CACF8091B000DD2309F43FC0DF3F09F482
:100E000077C080628093B000D093B400BCCF809153
:100E1000B000DD2339F1DF3F09F48BC08068809397
:100E2000B000D093B300DF91CF91089584B5DD2356
:100E300081F0DF3F09F474C0806884BDD7BDA3CFC3
:100E40008F7D84BD6091110185E00E94A00218BCD5
:100E50009ACF8F7784BD6091110186E00E94A00235
:100E600017BC91CF8F778093B000609111018BE018
:100E70000E94A0021092B30086CF8F7D8093B000B5
:100E80006091110183E00E94A0021092B4007BCF18
:100E90008F77809380006091110189E00E94A00209
:100EA00010928900109288006ECF8F7D8093800011
:100EB000609111018AE00E94A00210928B001092B2
:100EC0008A0061CF8F7D80938000609112018AE05B
:100ED0000E94A00210928B0010928A0054CF8F7D46
:100EE00084BD6091120185E00E94A00218BC4BCF26
:100EF0008F7D8093B0006091120183E00E94A00278
:100F00001092B40040CF8F778093800060911201DF
:100F100089E00E94A002109289001092880033CFCD
:100F20008F7784BD6091120186E00E94A00217BCF9
:100F30002ACF8F778093B000609112018BE00E94DE
:100F4000A0021092B3001FCF87E880937A008AE056
:100F500090E00E94A40361E08DE00E94E10260E065
:100F60008DE00C94A002CF93C82F883038F5809183
:100F70007A0087FD0FC087E880937A008AE090E0CE
:100F80000E94A40361E08DE00E94E10260E08DE038
:100F90000E94A002C064C0937C0080917A008064AB
:100FA00080937A0080917A0086FDFCCF8091780052
:100FB0002091790090E0922BCF91089580E090E00D
:100FC000CF9108951F920F920FB60F9211242F9375
:100FD0003F934F935F936F937F938F939F93AF93C1
:100FE000BF93EF93FF9380917A00877F80937A007D
:100FF000E0913F02F0914002309759F080917800E3
:101000002091790090E0922B099510924002109265
:101010003F02FF91EF91BF91AF919F918F917F918F
:101020006F915F914F913F912F910F900FBE0F9055
:101030001F9018950F931F93CF93C82F8B01883063
:10104000E8F480917A0087FD0FC087E880937A00EA
:101050008AE090E00E94A40361E08DE00E94E1023A
:1010600060E08DE00E94A00280917A0086FD06C0BB
:1010700080913F0290914002892B29F080E0CF912E
:101080001F910F9108951093400200933F02C06496
:10109000C0937C0080917A00886480937A00789471
:1010A00081E0EDCFA0E1B0E0E8E5F8E00C940C0CB5
:1010B0007C011B016A01FC0117821682838181FF7A
:1010C0006DC39E012F5F3F4F5901F7019381F101DD
:1010D00093FD859193FF81911F01882309F4CCC270
:1010E000853239F493FD859193FF81911F018532FB
:1010F00039F4B70190E00E94370D36016301E5CF66
:10110000512C912C00E0003238F48B3209F190F42C
:101110008032F9F0833209F107FD34C020ED280F49
:101120002A3020F506FF1BC0FAE05F9E200D112437
:10113000522E05C08D3279F0803371F70160F101D4
:1011400093FD859193FF81911F018111DCCF1AC01E
:1011500002600460F4CF0860F2CF0061F0CF3AE0A3
:10116000939E200D1124922E0062E9CF8E3221F43D
:1011700006FD82C20064E3CF8C3611F40068DFCF35
:101180008836E9F29BEB980F9330D8F50061805ECA
:1011900006FD02C046E0542E102F1F738536C1F5A0
:1011A000106417FF3EC08BE3851508F442C091E040
:1011B000950D9C8727E0360134E0630E711CF60123
:1011C00060817181828193810C85A5010E94490C07
:1011D0006C01F981FE87F0FF02C0F3FF30C011FD02
:1011E00030C0012F047012FD00E22E852C70422EBB
:1011F00009F464C00111D5C2F3E0F91520F1412CC6
:1012000036C09BE9980F933008F076C10F7EC0CFAF
:10121000863611F41068C5CF552009F4C2CF5A9410
:10122000C0CFE7E0E51548F427E037E0532E1C86F1
:10123000C2CF27E0FCE3FC87BECF252DF8CF0DE21F
:10124000D4CF0BE2D2CF83E0492C481A13FD08C05B
:10125000B70180E290E00E94370D4A944110F8CF28
:10126000002329F0B701802F90E00E94370D3E85C2
:1012700033FF15C098E6C92E90E0D92E1071F60103
:101280008491811111C0442009F438CFB70180E264
:1012900090E00E94370D4A94F6CF84E0D5CF8CE6DB
:1012A000C82E80E0D82EEACF11118052B70190E00D
:1012B0000E94370D8FEFC81AD80AE1CF17FF7CC004
:1012C0008C858C0DFE85F4FF04C09A81913309F45E
:1012D000815018160CF093C08C87893010F028E0EC
:1012E0002C8717FF91C01C141D040CF090C0C60180
:1012F000019601110196552031F0252D30E02F5F28
:101300003F4F820F931F292D30E08217930714F46B
:10131000492C481A812F897011F441107BC0002399
:1013200029F0B701802F90E00E94370D13FD02C015
:10133000411077C017FF90C04601D7FE02C0812C34
:10134000912CC60188199909F501E80FF91FF88B4E
:10135000EF8796018C85281B31093D872C87052D49
:1013600010E01195019511099FEF8916990629F44E
:10137000B7018EE290E00E94370DC814D9040CF436
:1013800057C0EC85FD85E815F9050CF051C0EF85D7
:10139000F8898181F1E08F1A91082F8538892F5FB4
:1013A0003F4F388B2F87801691060CF443C0B7014E
:1013B00090E00E94370DD8CF16FD93CFE52DF0E0D9
:1013C000EC15FD0534F03CEFC3163FEFD3060CF0EF
:1013D00010683296EA0DFB1D552019F0829180337A
:1013E00061F017FF7ECF81E0850D8C87852D90E021
:1013F000C816D9063CF45C1874CF5A94EDCF91E02E
:101400009C876FCF512C6DCF85E090E072CF81E04B
:1014100090E06FCFB70180E290E00E94370D4A94D0
:101420007CCFB70180E390E00E94370D4A9480CFD3
:1014300080E3B0CFC814D90441F49A81963350F4B4
:10144000953319F43E8534FF05C0B70190E00E9442
:10145000370D19CF81E3F9CF8A81813319F09E8549
:101460009F7E9E87B70190E00E94370D511024C0E7
:1014700014FD38C085E690E0B7010E94370DD7FC17
:1014800006C0C114D10489F5EE85E4FF2EC0D194C5
:10149000C194D1088DE2B70190E00E94370D80E33E
:1014A0002AE0C216D1041CF5B70190E00E94370D66
:1014B000B701C601C096CBCFB7018EE290E00E9483
:1014C000370D5394539482E001E0080FF501E80FC3
:1014D000F11D8081B70190E00E94370D802F5012DE
:1014E000F3CFC6CF85E490E0C7CF8BE2D4CF8F5F38
:1014F000FAE0CF1AD108D4CF8336C1F0833709F48C
:1015000043C0833509F05EC03601F2E06F0E711CF6
:10151000F601C080D18006FF4BC0652D70E0C6018A
:101520000E94210D9D878C8700680DC0360132E036
:10153000630E711CF6018081898321E030E03D87D4
:101540002C8765010F7703FD07C0892D90E02C855E
:101550003D852817390778F1492CEC85FD85EF2B5F
:1015600009F491CEF60107FD859107FF81916F0186
:10157000B70190E00E94370D41104A948C859D85FB
:1015800001979D878C87E9CF360132E0630E711C8D
:10159000F601C080D18006FF08C0652D70E0C6014D
:1015A0000E942C0D9D878C87CDCF6FEF7FEFF7CFFB
:1015B0006FEF7FEFB4CFB70180E290E00E94370D6C
:1015C0009A94C3CF843611F08936C1F5360107FFEE
:1015D0002AC0F4E06F0E711CF60160817181828176
:1015E0009381102F1F7697FF08C090958095709576
:1015F00061957F4F8F4F9F4F10682AE030E0A50123
:101600000E94970DC82ECA1816FF59C0012F0E7FD1
:10161000C51408F090C014FF04C012FD02C0012FD1
:101620000E7ED52C4EC0F2E06F0E711CF60160816B
:101630007181072E000C880B990BD3CF102F8537A3
:10164000A9F41F7E2AE030E0360117FF2FC0F4E036
:101650006F0E711CF6016081718182819381A501F9
:101660000E94970DC82ECA181F77CECF197F8F36CC
:10167000D1F048F4883591F0F70186819781609622
:10168000E2E10C94280C803739F08837A9F714FD73
:10169000146020E130E0D8CF1061F9CF04FD16606E
:1016A00020E132E0D1CF28E030E0CECFF2E06F0E83
:1016B000711CF6016081718180E090E0D0CFDC2C5C
:1016C000012F04FF41C0FE01EC0DF11D808180332C
:1016D000A1F5097EF02FF8704F2E03FD43C000FFE7
:1016E0003DC05C2CD91410F4590C5D1804FF42C0A5
:1016F000B70180E390E00E94370D02FF07C001FDB3
:1017000036C088E790E0B7010E94370DC51408F491
:101710003EC0CA940C2D10E00F5F1F4F0A0D1B1D19
:10172000F80182918F01B70190E00E94370D0A15F0
:101730001B05B1F7A8CDDC2CC4CF02FD02C0D394A9
:10174000C9CFD394D394C6CF802F867819F2F7CF20
:10175000B70180E290E00E94370DD394D914C0F312
:10176000412CC4CFD914E0F7492C4D18BFCF88E5E0
:1017700090E0C9CF802F867849F201FF06C08BE246
:1017800007FD8DE2B70190E0BFCF80E2F9CFB7014E
:1017900080E390E00E94370D5A94B8CF8FEF9FEF0F
:1017A0006ECF24E0291508F478CD412C5BCD83E081
:1017B00084BD85BD91E090938000809381009093DB
:1017C000B00084E08093B100EEE6F0E080818160BB
:1017D00080830895A1E21A2EAA1BBB1BFD010DC038
:1017E000AA1FBB1FEE1FFF1FA217B307E407F507D1
:1017F00020F0A21BB30BE40BF50B661F771F881FAD
:10180000991F1A9469F760957095809590959B0142
:10181000AC01BD01CF0108952F923F924F925F928C
:101820006F927F928F929F92AF92BF92CF92DF92F0
:10183000EF92FF920F931F93CF93DF93CDB7DEB755
:10184000CA1BDB0B0FB6F894DEBF0FBECDBF0994E9
:101850002A88398848885F846E847D848C849B8440
:10186000AA84B984C884DF80EE80FD800C811B814E
:10187000AA81B981CE0FD11D0FB6F894DEBF0FBE7D
:10188000CDBFED010895EE0FFF1F0590F491E02DFF
:101890000994283008F027E03327DA01990F311D29
:1018A00087FD916000966105710539F432602E5F05
:1018B0003D9330E32A95E1F708959F3F30F080385B
:1018C0007105610509F03C5F3C5F3D93913008F084
:1018D0008068911DDF93CF931F930F93FF92EF9238
:1018E000192F987F9695E92F96959695E90FFF27E2
:1018F000E653FF4F99273327EE24FF24A701E70182
:1019000005900894079428F4360FE71EF81E491F27
:10191000511D660F771F881F991F0694A1F7059028
:10192000079428F4E70EF81E491F561FC11D770FB4
:10193000881F991F661F0694A1F70590079428F445
:10194000F80E491F561FC71FD11D880F991F661F0C
:10195000771F0694A1F70590079420F4490F561FAE
:10196000C71FD81F990F661F771F881F0694A9F7F6
:1019700084911095177041F0D695C7955795479566
:10198000F794E7941A95C1F7E0E7F0E068941590B2
:10199000159135916591959105907FE27395E118C8
:1019A000F10A430B560BC90BD009C0F7E10CF11E2D
:1019B000431F561FC91FD01D7EF4703311F48A9542
:1019C000E6CFE894015030F0080F0AF40027021720
:1019D00008F4202F2395022F7A3328F079E37D93A2
:1019E0002A95E9F710C07D932A9589F60694979574
:1019F0006795379517951794E118F10A430B560B25
:101A0000C90BD00998F023957E9173957A3308F02D
:101A100070E37C932013B8F77E9170617D9330F072
:101A2000839571E37D9370E32A95E1F71124EF909C
:101A3000FF900F911F91CF91DF91992787FD90958E
:101A40000895FC010590615070400110D8F7809511
:101A500090958E0F9F1F0895FC016150704001907A
:101A60000110D8F7809590958E0F9F1F08950F93C2
:101A70001F93CF93DF93182F092FEB018B8181FDEB
:101A800009C01FEF0FEF812F902FDF91CF911F9192
:101A90000F91089582FF14C02E813F818C819D811A
:101AA000281739073CF4E881F981CF010196998321
:101AB000888310838E819F8101969F838E83E3CFDD
:101AC000E885F985812F0995892BA1F3DACFAEE05E
:101AD000B0E0EDE6FDE00C941A0C0D891E898F89AB
:101AE000988D26E02C831A83098397FF02C080E03B
:101AF00090E801979E838D83AE01455E5F4F698DAF
:101B00007A8DCE0101960E9452084D815E8157FD6B
:101B10000AC02F813885421753070CF49A01020F2F
:101B2000131FF80110822E96E4E00C94360CFA0193
:101B3000AA27283051F1203181F1E8946F936E7F0C
:101B40006E5F7F4F8F4F9F4FAF4FB1E03ED0B4E0FD
:101B50003CD0670F781F891F9A1FA11D680F791F3E
:101B60008A1F911DA11D6A0F711D811D911DA11D4F
:101B700020D009F468943F912AE0269F112430195F
:101B8000305D3193DEF6CF010895462F4770405DFA
:101B90004193B3E00FD0C9F7F6CF462F4F70405DA9
:101BA0004A3318F0495D31FD4052419302D0A9F704
:101BB000EACFB4E0A6959795879577956795BA95FE
:101BC000C9F700976105710508959B01AC010A2EC4
:101BD00006945795479537952795BA95C9F7620F9B
:0E1BE000731F841F951FA01D0895F894FFCF5A
:101BEE0000040701000100010001000001000100D6
:101BFE00010001256C6400252E326600252E2A6612
:021C0E000000D4
:00000001FF
