:100000000C94B6000C9419020C9442020C94DE007D
:100010000C94DE000C94DE000C94DE000C94DE00E8
:100020000C94DE000C94DE000C94DE000C94DE00D8
:100030000C94DE000C94DE000C94DE000C94DE00C8
:100040000C9425030C94DE000C94DE000C94DE006E
:100050000C94DE000C946E040C94DE000C94DE0014
:100060000C94DE000C94DE006E616E00696E66001A
:1000700000407A10F35A00A0724E18090010A5D45F
:10008000E80000E87648170000E40B54020000CABC
:100090009A3B000000E1F505000080969800000002
:1000A00040420F000000A086010000001027000061
:1000B0000000E803000000006400000000000A00E7
:1000C000000000000100000000002C76D888DC67EA
:1000D0004F0823DFC1DFAE59E1B1B796E5E3E45342
:1000E000C63AE651997696E8E6C28426EB898C9B5F
:1000F00062ED407C6FFCEFBC9C9F40F2BAA56FA5FF
:10010000F490055A2AF75C936B6CF9676DC11BFC80
:10011000E0E40D47FEF520E6B500D0ED902E03009B
:10012000943577050080841E080000204E0A0000E8
:1001300000C80C333333330F986E12831141EF8DA7
:100140002114893BE65516CFFEE6DB18D1844B38E7
:100150001BF77C1D901DA4BBE424203284725E2218
:100160008100C9F124ECA1E53D27630811241FBEDD
:10017000CFEFD8E0DEBFCDBF11E0A0E0B1E0E2EC10
:10018000F4E102C005900D92A032B107D9F721E049
:10019000A0E2B1E001C01D92AD3BB207E1F710E073
:1001A000C6EBD0E004C02197FE010E94AD08C53B1C
:1001B000D107C9F70E94E0000C945F0A0C9400007C
:1001C000EF92FF920F931F9380E0809320018DE0C8
:1001D0008093210110910C0100910B01809120016D
:1001E0000E944D017C0180912101612F0E942B0111
:1001F000C7010E94040180912101602F0E942B0100
:10020000C7010E940401EACF0E949B0208950E9448
:10021000AF0208950E94C70208950E94CC0240E0F8
:1002200050E09C01BA01CA0108950E94CF0240E04B
:1002300050E09C01BA01CA0108950E94EB0240E01F
:1002400050E09C01BA01CA0108950E94AA020895D3
:100250000E947E010895833051F0853041F0863050
:1002600031F0893021F08A3011F08B3059F461700F
:10027000603021F06FEF0E943C03089560E00E941F
:100280003C03089561700E949701089561700E9477
:10029000D80108950E943C0308950E943F040895E8
:1002A0000E94A60408950E946B0208950E947B029A
:1002B00008950E94810208950E9495020895883051
:1002C000A0F08E3050F08531B8F492EF980F81E0B5
:1002D00001C0880F9A95EAF7089598EF980F81E08A
:1002E00001C0880F9A95EAF7089591E001C0990F2F
:1002F0008A95EAF7892F089580E00895883058F4A8
:1003000099B121E030E001C0220F8A95EAF79223EB
:1003100081E029F008958E3020F0853128F080E0CA
:10032000089593B18850EDCF96B18E50EACF8830C2
:1003300060F421E030E001C0220F8A95EAF76623DD
:1003400049F18BB1282B2BB908958E3088F4885051
:1003500021E030E0A90102C0440F551F8A95E2F761
:10036000CA0161111CC095B18095892385B9089592
:100370008531E8F78E5021E030E0A90102C0440F3A
:10038000551F8A95E2F7CA01662369F098B1892B57
:1003900088B908958BB1209528232BB9089595B17C
:1003A000892B85B9089598B18095892388B90895D6
:1003B000883060F421E030E001C0220F8A95EAF72E
:1003C000662349F18AB1282B2AB908958E3088F422
:1003D000885021E030E0A90102C0440F551F8A95E2
:1003E000E2F7CA0161111CC094B18095892384B9D8
:1003F00008958531E8F78E5021E030E0A90102C070
:10040000440F551F8A95E2F7CA01662369F097B138
:10041000892B87B908958AB1209528232AB9089590
:1004200094B1892B84B9089597B18095892387B9B0
:1004300008951F920F920FB60F9211242F933F939E
:100440004F935F936F937F938F939F93AF93BF93DC
:10045000EF93FF93E0912401F0912501309709F08B
:100460000995FF91EF91BF91AF919F918F917F91EE
:100470006F915F914F913F912F910F900FBE0F9011
:100480001F9018951F920F920FB60F9211242F9361
:100490003F934F935F936F937F938F939F93AF930C
:1004A000BF93EF93FF93E0912201F09123013097E6
:1004B00009F00995FF91EF91BF91AF919F918F91B5
:1004C0007F916F915F914F913F912F910F900FBE50
:1004D0000F901F9018957093250160932401E9E611
:1004E000F0E090819C7F908390818370892B808342
:1004F000E89A789408951092250110922401E898C2
:1005000008957093230160932201E9E6F0E0908161
:10051000937F9083208134E0839FC00111248C70ED
:10052000822B8083E99A7894089510922301109287
:100530002201E9980895009761F020E030E040EA58
:100540005FE0FA013197F1F72F5F3F4F8217930772
:10055000C1F7089580912601909127010895E091B7
:100560003701EF3791F091E09E0F909337010E2EF7
:10057000000CFF0BE85CFE4F8083E92F990FFF0B07
:10058000E85CFE4F108281E0089580E008951092AB
:10059000370110923801089588E391E008959F9300
:1005A0008F937F936F9381E191E09F938F931F923D
:1005B0008FE08F9388E291E09F938F930E94D109FF
:1005C0008DB79EB70A960FB6F8949EBF0FBE8DBF2B
:1005D00088E291E008959F938F937F936F9385E1D5
:1005E00091E09F938F931F928FE08F9388E291E029
:1005F0009F938F930E94D1098DB79EB70A960FB62D
:10060000F8949EBF0FBE8DBF88E291E008959F933E
:100610008F937F936F931F924F938AE191E09F9303
:100620008F931F928FE08F9388E291E09F938F9337
:100630000E94D1098DB79EB70C960FB6F8949EBF55
:100640000FBE8DBF88E291E008951F920F920FB602
:100650000F9211248F939F938091260190912701EF
:10066000019690932701809326019F918F910F907F
:100670000FBE0F901F901895CF93DF93C82FD62FE2
:1006800060910E010E94D801C63009F45BC050F0A1
:10069000CA30B9F0CB3009F446C0C93021F1DF913E
:1006A000CF910895C33089F1C530C9F784B5DD23F2
:1006B00009F452C0DF3F09F49EC0806284BDD8BDFA
:1006C000EECF80918000DD2309F47BC0DF3F09F489
:1006D00085C08062809380006D2F70E070938B00E6
:1006E00060938A00DCCF80918000DD2309F45CC038
:1006F000DF3F09F494C08068809380006D2F70E024
:100700007093890060938800CACF8091B000DD2388
:1007100009F43FC0DF3F09F477C080628093B000E6
:10072000D093B400BCCF8091B000DD2339F1DF3F1E
:1007300009F48BC080688093B000D093B300DF9140
:10074000CF91089584B5DD2381F0DF3F09F474C0B3
:10075000806884BDD7BDA3CF8F7D84BD60910F011C
:1007600085E00E94970118BC9ACF8F7784BD609175
:100770000F0186E00E94970117BC91CF8F7780937D
:10078000B00060910F018BE00E9497011092B300BE
:1007900086CF8F7D8093B00060910F0183E00E942F
:1007A00097011092B4007BCF8F7780938000609187
:1007B0000F0189E00E949701109289001092880031
:1007C0006ECF8F7D8093800060910F018AE00E9440
:1007D000970110928B0010928A0061CF8F7D8093D9
:1007E0008000609110018AE00E94970110928B00B6
:1007F00010928A0054CF8F7D84BD6091100185E0F6
:100800000E94970118BC4BCF8F7D8093B000609100
:10081000100183E00E9497011092B40040CF8F77BF
:10082000809380006091100189E00E9497011092EE
:1008300089001092880033CF8F7784BD60911001BA
:1008400086E00E94970117BC2ACF8F778093B00073
:10085000609110018BE00E9497011092B3001FCFAE
:1008600087E880937A008AE090E00E949B0261E032
:100870008DE00E94D80160E08DE00C949701CF9349
:10088000C82F883038F580917A0087FD0FC087E83F
:1008900080937A008AE090E00E949B0261E08DE004
:1008A0000E94D80160E08DE00E949701C064C0936F
:1008B0007C0080917A00806480937A0080917A0035
:1008C00086FDFCCF809178002091790090E0922BFA
:1008D000CF91089580E090E0CF9108951F920F92FC
:1008E0000FB60F9211242F933F934F935F936F9303
:1008F0007F938F939F93AF93BF93EF93FF938091D9
:100900007A00877F80937A00E091BB01F091BC016F
:10091000309759F0809178002091790090E0922BE7
:1009200009951092BC011092BB01FF91EF91BF910C
:10093000AF919F918F917F916F915F914F913F9177
:100940002F910F900FBE0F901F9018950F931F932C
:10095000CF93C82F8B018830E8F480917A0087FD0F
:100960000FC087E880937A008AE090E00E949B02A3
:1009700061E08DE00E94D80160E08DE00E94970167
:1009800080917A0086FD06C08091BB019091BC01E8
:10099000892B29F080E0CF911F910F91089510933A
:1009A000BC010093BB01C064C0937C0080917A00BD
:1009B000886480937A00789481E0EDCFA0E1B0E084
:1009C000E4EEF4E00C9476087C011B016A01FC0162
:1009D00017821682838181FF6DC39E012F5F3F4F77
:1009E0005901F7019381F10193FD859193FF819165
:1009F0001F01882309F4CCC2853239F493FD859117
:100A000093FF81911F01853239F4B70190E00E9474
:100A1000A10936016301E5CF512C912C00E0003291
:100A200038F48B3209F190F48032F9F0833209F115
:100A300007FD34C020ED280F2A3020F506FF1BC02B
:100A4000FAE05F9E200D1124522E05C08D3279F000
:100A5000803371F70160F10193FD859193FF8191DE
:100A60001F018111DCCF1AC002600460F4CF08605E
:100A7000F2CF0061F0CF3AE0939E200D1124922E28
:100A80000062E9CF8E3221F406FD82C20064E3CF1A
:100A90008C3611F40068DFCF8836E9F29BEB980FB3
:100AA0009330D8F50061805E06FD02C046E0542E0A
:100AB000102F1F738536C1F5106417FF3EC08BE3FE
:100AC000851508F442C091E0950D9C8727E036011A
:100AD00034E0630E711CF601608171818281938123
:100AE0000C85A5010E94B3086C01F981FE87F0FF17
:100AF00002C0F3FF30C011FD30C0012F047012FDA1
:100B000000E22E852C70422E09F464C00111D5C27A
:100B1000F3E0F91520F1412C36C09BE9980F933092
:100B200008F076C10F7EC0CF863611F41068C5CFAD
:100B3000552009F4C2CF5A94C0CFE7E0E51548F438
:100B400027E037E0532E1C86C2CF27E0FCE3FC876A
:100B5000BECF252DF8CF0DE2D4CF0BE2D2CF83E06C
:100B6000492C481A13FD08C0B70180E290E00E94AA
:100B7000A1094A944110F8CF002329F0B701802F32
:100B800090E00E94A1093E8533FF15C098E6C92E6A
:100B900090E0D92E1071F6018491811111C044208A
:100BA00009F438CFB70180E290E00E94A1094A948D
:100BB000F6CF84E0D5CF8CE6C82E80E0D82EEACFE1
:100BC00011118052B70190E00E94A1098FEFC81A5D
:100BD000D80AE1CF17FF7CC08C858C0DFE85F4FF11
:100BE00004C09A81913309F4815018160CF093C017
:100BF0008C87893010F028E02C8717FF91C01C14D7
:100C00001D040CF090C0C6010196011101965520FB
:100C100031F0252D30E02F5F3F4F820F931F292D9C
:100C200030E08217930714F4492C481A812F8970F9
:100C300011F441107BC0002329F0B701802F90E010
:100C40000E94A10913FD02C0411077C017FF90C098
:100C50004601D7FE02C0812C912CC6018819990942
:100C6000F501E80FF91FF88BEF8796018C85281B9B
:100C700031093D872C87052D10E01195019511094B
:100C80009FEF8916990629F4B7018EE290E00E9441
:100C9000A109C814D9040CF457C0EC85FD85E815EA
:100CA000F9050CF051C0EF85F8898181F1E08F1AC8
:100CB00091082F8538892F5F3F4F388B2F878016FB
:100CC00091060CF443C0B70190E00E94A109D8CF6F
:100CD00016FD93CFE52DF0E0EC15FD0534F03CEF6B
:100CE000C3163FEFD3060CF010683296EA0DFB1DD9
:100CF000552019F08291803361F017FF7ECF81E09B
:100D0000850D8C87852D90E0C816D9063CF45C18BB
:100D100074CF5A94EDCF91E09C876FCF512C6DCF5B
:100D200085E090E072CF81E090E06FCFB70180E284
:100D300090E00E94A1094A947CCFB70180E390E043
:100D40000E94A1094A9480CF80E3B0CFC814D9048F
:100D500041F49A81963350F4953319F43E8534FF6B
:100D600005C0B70190E00E94A10919CF81E3F9CF36
:100D70008A81813319F09E859F7E9E87B70190E01E
:100D80000E94A109511024C014FD38C085E690E0EE
:100D9000B7010E94A109D7FC06C0C114D10489F58E
:100DA000EE85E4FF2EC0D194C194D1088DE2B70145
:100DB00090E00E94A10980E32AE0C216D1041CF54C
:100DC000B70190E00E94A109B701C601C096CBCF40
:100DD000B7018EE290E00E94A1095394539482E0FF
:100DE00001E0080FF501E80FF11D8081B70190E0E7
:100DF0000E94A109802F5012F3CFC6CF85E490E066
:100E0000C7CF8BE2D4CF8F5FFAE0CF1AD108D4CF0F
:100E10008336C1F0833709F443C0833509F05EC0DF
:100E20003601F2E06F0E711CF601C080D18006FF22
:100E30004BC0652D70E0C6010E948B099D878C8791
:100E400000680DC0360132E0630E711CF60180812E
:100E5000898321E030E03D872C8765010F7703FD12
:100E600007C0892D90E02C853D852817390778F13A
:100E7000492CEC85FD85EF2B09F491CEF60107FD99
:100E8000859107FF81916F01B70190E00E94A10950
:100E900041104A948C859D8501979D878C87E9CF69
:100EA000360132E0630E711CF601C080D18006FF6E
:100EB00008C0652D70E0C6010E9496099D878C8749
:100EC000CDCF6FEF7FEFF7CF6FEF7FEFB4CFB701ED
:100ED00080E290E00E94A1099A94C3CF843611F079
:100EE0008936C1F5360107FF2AC0F4E06F0E711C88
:100EF000F6016081718182819381102F1F7697FFA7
:100F000008C090958095709561957F4F8F4F9F4F4A
:100F100010682AE030E0A5010E94010AC82ECA1814
:100F200016FF59C0012F0E7FC51408F090C014FFA2
:100F300004C012FD02C0012F0E7ED52C4EC0F2E07F
:100F40006F0E711CF60160817181072E000C880BF9
:100F5000990BD3CF102F8537A9F41F7E2AE030E0FC
:100F6000360117FF2FC0F4E06F0E711CF60160818F
:100F7000718182819381A5010E94010AC82ECA183D
:100F80001F77CECF197F8F36D1F048F4883591F096
:100F9000F701868197816096E2E10C949208803790
:100FA00039F08837A9F714FD146020E130E0D8CF7C
:100FB0001061F9CF04FD166020E132E0D1CF28E0C6
:100FC00030E0CECFF2E06F0E711CF60160817181CE
:100FD00080E090E0D0CFDC2C012F04FF41C0FE0167
:100FE000EC0DF11D80818033A1F5097EF02FF870A2
:100FF0004F2E03FD43C000FF3DC05C2CD91410F4FC
:10100000590C5D1804FF42C0B70180E390E00E94D4
:10101000A10902FF07C001FD36C088E790E0B701D3
:101020000E94A109C51408F43EC0CA940C2D10E01A
:101030000F5F1F4F0A0D1B1DF80182918F01B70131
:1010400090E00E94A1090A151B05B1F7A8CDDC2C80
:10105000C4CF02FD02C0D394C9CFD394D394C6CFDA
:10106000802F867819F2F7CFB70180E290E00E94D6
:10107000A109D394D914C0F3412CC4CFD914E0F7FB
:10108000492C4D18BFCF88E590E0C9CF802F8678D6
:1010900049F201FF06C08BE207FD8DE2B70190E047
:1010A000BFCF80E2F9CFB70180E390E00E94A109B1
:1010B0005A94B8CF8FEF9FEF6ECF24E0291508F434
:1010C00078CD412C5BCD83E084BD85BD91E09093CC
:1010D0008000809381009093B00084E08093B10001
:1010E000EEE6F0E080818160808308952F923F9248
:1010F0004F925F926F927F928F929F92AF92BF9228
:10110000CF92DF92EF92FF920F931F93CF93DF93D3
:10111000CDB7DEB7CA1BDB0B0FB6F894DEBF0FBE30
:10112000CDBF09942A88398848885F846E847D847D
:101130008C849B84AA84B984C884DF80EE80FD807F
:101140000C811B81AA81B981CE0FD11D0FB6F894F5
:10115000DEBF0FBECDBFED010895EE0FFF1F05905E
:10116000F491E02D0994283008F027E03327DA01C4
:10117000990F311D87FD916000966105710539F465
:1011800032602E5F3D9330E32A95E1F708959F3F4B
:1011900030F080387105610509F03C5F3C5F3D939C
:1011A000913008F08068911DDF93CF931F930F93C8
:1011B000FF92EF92192F987F9695E92F9695969525
:1011C000E90FFF27E653FF4F99273327EE24FF242B
:1011D000A701E70105900894079428F4360FE71E4D
:1011E000F81E491F511D660F771F881F991F06940F
:1011F000A1F70590079428F4E70EF81E491F561F23
:10120000C11D770F881F991F661F0694A1F70590CF
:10121000079428F4F80E491F561FC71FD11D880FC9
:10122000991F661F771F0694A1F70590079420F475
:10123000490F561FC71FD81F990F661F771F881F9A
:101240000694A9F784911095177041F0D695C7952B
:1012500057954795F794E7941A95C1F7E0E7F0E0C2
:1012600068941590159135916591959105907FE25F
:101270007395E118F10A430B560BC90BD009C0F75F
:10128000E10CF11E431F561FC91FD01D7EF47033A1
:1012900011F48A95E6CFE894015030F0080F0AF473
:1012A0000027021708F4202F2395022F7A3328F005
:1012B00079E37D932A95E9F710C07D932A9589F605
:1012C000069497956795379517951794E118F10A45
:1012D000430B560BC90BD00998F023957E9173955B
:1012E0007A3308F070E37C932013B8F77E91706135
:1012F0007D9330F0839571E37D9370E32A95E1F758
:101300001124EF90FF900F911F91CF91DF919927BA
:1013100087FD90950895FC01059061507040011083
:10132000D8F7809590958E0F9F1F0895FC0161500E
:10133000704001900110D8F7809590958E0F9F1FF7
:1013400008950F931F93CF93DF93182F092FEB016D
:101350008B8181FD09C01FEF0FEF812F902FDF914F
:10136000CF911F910F91089582FF14C02E813F816C
:101370008C819D81281739073CF4E881F981CF01E0
:1013800001969983888310838E819F8101969F8324
:101390008E83E3CFE885F985812F0995892BA1F309
:1013A000DACFAEE0B0E0E7EDF9E00C9484080D8907
:1013B0001E898F89988D26E02C831A83098397FFD5
:1013C00002C080E090E801979E838D83AE01455E68
:1013D0005F4F698D7A8DCE0101960E94DE044D81AA
:1013E0005E8157FD0AC02F813885421753070CF4E0
:1013F0009A01020F131FF80110822E96E4E00C945C
:10140000A008FA01AA27283051F1203181F1E8948F
:101410006F936E7F6E5F7F4F8F4F9F4FAF4FB1E0E7
:101420003ED0B4E03CD0670F781F891F9A1FA11DE2
:10143000680F791F8A1F911DA11D6A0F711D811DE3
:10144000911DA11D20D009F468943F912AE0269FA8
:1014500011243019305D3193DEF6CF010895462F07
:101460004770405D4193B3E00FD0C9F7F6CF462FE8
:101470004F70405D4A3318F0495D31FD4052419351
:1014800002D0A9F7EACFB4E0A6959795879577950E
:101490006795BA95C9F700976105710508959B0195
:1014A000AC010A2E06945795479537952795BA951E
:1014B000C9F7620F731F841F951FA01D0895F8942C
:0214C000FFCF5C
:1014C2000004070100010001000001000100010009
:1014D20001256C6400252E326600252E2A66000046
:00000001FF
