:100000000C9435000C945D000C945D000C945D0024
:100010000C945D000C945D000C945D000C945D00EC
:100020000C945D000C945D000C945D000C945D00DC
:100030000C945D000C945D000C945D000C945D00CC
:100040000C941E020C945D000C9435020C945D001F
:100050000C945D000C942D040C945D000C945D00D8
:100060000C945D000C945D00AF0411241FBECFEF13
:10007000D8E0DEBFCDBF11E0A0E0B1E0E6ECFFE0EC
:1000800002C005900D92A631B107D9F722E0A6E192
:10009000B1E001C01D92A033B207E1F710E0C5E363
:1000A000D0E004C02197FE010E94E404C433D107CC
:1000B000C9F70E9460000C94E1070C940000000056
:1000C0000F931F9380E895E20E94BA0004EF11E0BD
:1000D00080E00E94B3000E941601C8010E947200D5
:1000E000F7CF00000E94CE0108950E94E20108951A
:1000F0000E94FA0108950E94FF0140E050E09C0137
:10010000BA01CA0108950E94020240E050E09C0139
:10011000BA01CA0108950E94DD0108950E943F01BD
:100120000895833051F0853041F0863031F08930C8
:1001300021F08A3011F08B3059F46170603021F079
:100140006FEF0E94FB02089560E00E94FB02089599
:1001500061700E947601089561700E94A601089561
:100160000E94FB0208950E94FE03089540E00E9451
:10017000650408950E9477020895C9010E94B4029F
:1001800008950E94AD0208950E9402020E94C402D6
:1001900008950E94C40008959C01359527953595D2
:1001A0002795359527953595279535952795359537
:1001B0002795359527953595279535952795359527
:1001C0002795359527953595279535952795359517
:1001D000279535952795BC01C9010E94C400089553
:1001E000682F782F770F770BCB019595879595958D
:1001F00087959595879595958795959587959595E7
:1002000087959595879595958795959587959595D6
:1002100087959595879595958795959587959595C6
:100220008795959587950E94C400089520E030E059
:10023000BC01C9010E94C4000895682F772780E09F
:1002400090E00E94C40008950E94D30208950E9485
:10025000DE020895883060F08E3040F498EF980FF9
:1002600081E001C0880F9A95EAF7089580E008952B
:1002700091E001C0990F8A95EAF7892F0895CF93ED
:10028000C82F0E942A01882331F0C83038F093B17A
:10029000982381E009F480E0CF91089599B19823E3
:1002A00081E0C9F3CF9108950E942A01882321F0AB
:1002B0009BB1809589238BB908950E942A018823D8
:1002C00021F095B18095892385B908950E942A016E
:1002D000882319F09BB1892B8BB908950E942A01BC
:1002E000882319F095B1892B85B90895662321F0EB
:1002F000883030F40C946601883020F00C945D0155
:100300000C946E010C9454010E942A01882319F068
:100310009AB1892B8AB908950E942A01882319F07D
:1003200094B1892B84B908950E942A01882321F071
:100330009AB1809589238AB908950E942A01882359
:1003400021F094B18095892384B90895662351F0F2
:100350008830E0F40E942A018823B9F09AB1892BF1
:100360008AB90895883048F40E942A01882369F0E8
:100370009AB1809589238AB908950E942A01882319
:1003800021F094B18095892384B908950E942A01AF
:100390008823D9F394B1892B84B90895009761F02B
:1003A00020E030E040EA5FE0FA013197F1F72F5F9B
:1003B0003F4F82179307C1F70895809116019091DE
:1003C00017010895E0912701EF3791F091E09E0F1A
:1003D000909327010E2E000CFF0BE85DFE4F8083EB
:1003E000E92F990FFF0BE85DFE4F108281E0089521
:1003F00080E008951092270110922801089588E264
:1004000091E008959F938F937F936F938FE091E096
:100410009F938F931F928FE08F9388E191E09F933A
:100420008F930E94EA048DB79EB70A960FB6F89490
:100430009EBF0FBE8DBF88E191E008951F920F927D
:100440000FB60F9211248F939F9380911601909174
:100450001701019690931701809316019F918F9138
:100460000F900FBE0F901F9018951F920F920FB60E
:100470000F9211242F938F939F93EF93FF9380916B
:10048000A80181111EC0E091A90181E08E0F809327
:10049000A9019091C6000E2E000CFF0BE555FE4FF2
:1004A0009083082E000C990B8F77907897FD13C0DE
:1004B0008093A90191E02091AA01281390E09093E4
:1004C000A801FF91EF919F918F912F910F900FBEF7
:1004D0000F901F901895019780689F6F01968093E9
:1004E000A90191E02091AA012813E8CFE8CF9C014F
:1004F000990F440B550B220F331F441F551F220F1A
:10050000331F441F551F220F331F441F551F220F37
:10051000331F441F551F60E074E284EF90E00E9497
:10052000C204BA01A9014150510961097109BB27EF
:1005300077FDBA95A72F962F852F8093C5004093FE
:10054000C400E2ECF0E0808186608083E1ECF0E0C2
:10055000808188698083789408959091C00095FF88
:10056000FCCF8093C6000895FC012491222359F00A
:1005700031969091C00095FFFCCF2093C600249146
:1005800031962111F6CF0895FC012081222351F0EC
:1005900031969091C00095FFFCCF2093C600219129
:1005A0002111F7CF08959091AA018091A901981780
:1005B00011F081E008958091A80108952091A8018B
:1005C0009091AA018091A901981791F09FB7F89492
:1005D000E091AA0181E08E0F8093AA010E2E000CFB
:1005E000FF0BE555FE4F80811092A8019FBF089533
:1005F0002111ECCFFFCFCF93DF93C82FD62F60917F
:100600000C010E94A601C63009F45BC050F0CA304C
:10061000B9F0CB3009F446C0C93021F1DF91CF9158
:100620000895C33089F1C530C9F784B5DD2309F4D5
:1006300052C0DF3F09F49EC0806284BDD8BDEECFBA
:1006400080918000DD2309F47BC0DF3F09F485C081
:100650008062809380006D2F70E070938B006093B8
:100660008A00DCCF80918000DD2309F45CC0DF3F8D
:1006700009F494C08068809380006D2F70E07093BF
:10068000890060938800CACF8091B000DD2309F40F
:100690003FC0DF3F09F477C080628093B000D09301
:1006A000B400BCCF8091B000DD2339F1DF3F09F405
:1006B0008BC080688093B000D093B300DF91CF915E
:1006C000089584B5DD2381F0DF3F09F474C08068AC
:1006D00084BDD7BDA3CF8F7D84BD60910D0185E022
:1006E0000E94760118BC9ACF8F7784BD60910D016E
:1006F00086E00E94760117BC91CF8F778093B0007F
:1007000060910D018BE00E9476011092B30086CFBC
:100710008F7D8093B00060910D0183E00E9476018F
:100720001092B4007BCF8F778093800060910D0191
:1007300089E00E94760110928900109288006ECFA5
:100740008F7D8093800060910D018AE00E94760188
:1007500010928B0010928A0061CF8F7D8093800071
:1007600060910E018AE00E94760110928B00109237
:100770008A0054CF8F7D84BD60910E0185E00E9478
:10078000760118BC4BCF8F7D8093B00060910E0135
:1007900083E00E9476011092B40040CF8F7780935F
:1007A000800060910E0189E00E947601109289001C
:1007B0001092880033CF8F7784BD60910E0186E060
:1007C0000E94760117BC2ACF8F778093B00060918A
:1007D0000E018BE00E9476011092B3001FCF87E8D4
:1007E00080937A008AE090E00E94CE0161E08DE083
:1007F0000E94A60160E08DE00C947601CF93C82F93
:10080000883038F580917A0087FD0FC087E88093A3
:100810007A008AE090E00E94CE0161E08DE00E94C3
:10082000A60160E08DE00E947601C064C0937C0068
:1008300080917A00806480937A0080917A0086FDAE
:10084000FCCF809178002091790090E0922BCF919D
:10085000089580E090E0CF9108951F920F920FB617
:100860000F9211242F933F934F935F936F937F9336
:100870008F939F93AF93BF93EF93FF9380917A00F1
:10088000877F80937A00E0912E02F0912F023097BB
:1008900059F0809178002091790090E0922B099591
:1008A00010922F0210922E02FF91EF91BF91AF9103
:1008B0009F918F917F916F915F914F913F912F9178
:1008C0000F900FBE0F901F9018950F931F93CF930B
:1008D000DF93C82F162FD72F042F8830E8F480918C
:1008E0007A0087FD0FC087E880937A008AE090E065
:1008F0000E94CE0161E08DE00E94A60160E08DE0E3
:100900000E94760180917A0086FD06C080912E02B9
:1009100090912F02892B31F080E0DF91CF911F91D0
:100920000F910895002359F0812F9D2F97FD15C039
:100930009595879590932F0280932E0204C0109373
:100940002E02D0932F02C064C0937C0080917A0065
:10095000886480937A0081E0E0CF0196E9CF83E05C
:1009600084BD85BD91E09093800080938100909339
:10097000B00084E08093B100EEE6F0E08081816019
:1009800080830895A1E21A2EAA1BBB1BFD010DC096
:10099000AA1FBB1FEE1FFF1FA217B307E407F5072F
:1009A00020F0A21BB30BE40BF50B661F771F881F0B
:1009B000991F1A9469F760957095809590959B01A1
:1009C000AC01BD01CF010895EE0FFF1F0590F4911A
:1009D000E02D0994AEE0B0E0E0EFF4E00C94B8074D
:1009E0000D891E898F89988D26E02C831A830983AF
:1009F00097FF02C080E090E801979E838D83AE014F
:100A0000455E5F4F698D7A8DCE0101960E941A0571
:100A10004D815E8157FD0AC02F81388542175307EB
:100A20000CF49A01020F131FF80110822E96E4E0D5
:100A30000C94D407ABE0B0E0E0E2F5E00C94AA0738
:100A40007C013B018A01FC0117821682838181FFB0
:100A5000DAC1CE0101965C01F7019381F30193FDA8
:100A6000859193FF81913F01882309F42FC185323D
:100A700039F493FD859193FF81913F01853229F4EB
:100A8000B70190E00E941C07E7CF912C212C312C5C
:100A9000FFE1F31538F08B32D9F090F48032D9F0C1
:100AA000833249F137FC41C020ED280F2A3070F520
:100AB00036FE24C08AE0989E200D1124922E0EC08E
:100AC0008D32A9F0803371F7232D2160322E06C0BC
:100AD000832D8260382EE32DE4603E2EF30193FDDA
:100AE000859193FF81913F018111D2CF1EC0F32DDB
:100AF000F8603F2EF3CF232D2061E8CFEAE02E9E51
:100B0000200D1124222EF32DF062F3CF8E3229F422
:100B100036FCDCC0232D2064D9CF8C3621F4832D04
:100B20008068382EDBCF8836C9F2982F9F7D955488
:100B30009330D8F08336C9F18337E9F1833509F072
:100B400068C0280122E0420E511CF801C080D1800B
:100B500036FE45C0692D70E0C6010E9406074C01B3
:100B6000F32DF0683F2E82010BC00C5F1F4F9FE3F7
:100B7000998388248394912C6501F32DFF773F2E70
:100B800033FC05C0822D90E08816990658F1522C4E
:100B90008114910471F5552009F45ECFB70180E20C
:100BA00090E00E941C075A94F6CFF8018081898357
:100BB0000E5F1F4FDECF2801F2E04F0E511CF801EF
:100BC000C080D18036FE08C0692D70E0C6010E9449
:100BD00011074C018201D1CF6FEF7FEFF7CF6FEF9D
:100BE0007FEFBACFB70180E290E00E941C072A9401
:100BF000C9CFF60137FC859137FE81916F01B701AE
:100C000090E00E941C0751105A9421E0821A91082A
:100C1000BFCF843611F08936C1F5F80137FE2CC0FC
:100C200060817181828193810C5F1F4FF32DFF766C
:100C30003F2E97FF09C090958095709561957F4FE5
:100C40008F4F9F4FF0683F2E2AE030E0A5010E94B1
:100C50004C07C82ECA1836FE62C0232D2E7F422EA6
:100C6000C91408F09BC034FE05C032FC03C0832DBC
:100C70008E7E482E892C55C060817181072E000C14
:100C8000880B990B0E5F1F4FD1CF8537B9F4232DF9
:100C90002F7ED22E2AE030E0F801D7FE39C06081E5
:100CA0007181828193810C5F1F4FA5010E944C07C7
:100CB000C82ECA18FD2DFF773F2ECDCF932D997FDB
:100CC000D92E8F3611F148F48835B9F0F7018681B5
:100CD00097812B96E2E10C94C607803751F0883754
:100CE000A9F7D4FE03C0FD2DF460DF2E20E130E033
:100CF000D3CFE92FE061DE2EF4CF34FE03C0292FDD
:100D00002660D22E20E132E0C7CF28E030E0C4CF09
:100D10006081718180E090E00E5F1F4FC6CF8C2C08
:100D2000432C44FE44C0FE01EC0DF11D8081803354
:100D3000B9F5942D997E492EE42DE8705E2E43FC82
:100D400044C040FE3EC0821408F044C02C0C922CDB
:100D5000981844FE44C0B70180E390E00E941C074D
:100D600042FE07C041FC38C088E790E0B7010E940E
:100D70001C07C91408F440C0CA94D12CFFEFCF1A45
:100D8000DF0ACA0CDB1CF60182916F01B70190E00B
:100D90000E941C07AC14BD04B1F7FDCE8C2CC1CF52
:100DA00042FC02C08394C8CF83948394C5CF842D22
:100DB000867811F2F7CFB70180E290E00E941C071D
:100DC00083948214C0F3512CC4CF8214E0F7522CC8
:100DD0005818BFCF9C2CBDCF88E590E0C7CF842D9D
:100DE000867839F241FE06C08BE247FC8DE2B701FE
:100DF00090E0BDCF80E2F9CFB70180E390E00E94A0
:100E00001C079A94B6CF8FEF9FEF63CFFC0105903C
:100E1000615070400110D8F7809590958E0F9F1FFC
:100E20000895FC016150704001900110D8F7809541
:100E300090958E0F9F1F08950F931F93CF93DF936D
:100E4000182F092FEB018B8181FD09C01FEF0FEFD8
:100E5000812F902FDF91CF911F910F91089582FFE5
:100E600014C02E813F818C819D81281739073CF465
:100E7000E881F981CF0101969983888310838E815F
:100E80009F8101969F838E83E3CFE885F985812F2B
:100E90000995892BA1F3DACFFA01AA27283051F15D
:100EA000203181F1E8946F936E7F6E5F7F4F8F4F9B
:100EB0009F4FAF4FB1E03ED0B4E03CD0670F781FFA
:100EC000891F9A1FA11D680F791F8A1F911DA11DDF
:100ED0006A0F711D811D911DA11D20D009F4689418
:100EE0003F912AE0269F11243019305D3193DEF6C0
:100EF000CF010895462F4770405D4193B3E00FD076
:100F0000C9F7F6CF462F4F70405D4A3318F0495D60
:100F100031FD4052419302D0A9F7EACFB4E0A69543
:100F20009795879577956795BA95C9F70097610565
:100F3000710508959B01AC010A2E069457954795BB
:100F400037952795BA95C9F7620F731F841F951FB0
:100F5000A01D08952F923F924F925F926F927F92C1
:100F60008F929F92AF92BF92CF92DF92EF92FF92B9
:100F70000F931F93CF93DF93CDB7DEB7CA1BDB0B65
:100F80000FB6F894DEBF0FBECDBF09942A8839880A
:100F900048885F846E847D848C849B84AA84B98411
:100FA000C884DF80EE80FD800C811B81AA81B9811D
:100FB000CE0FD11D0FB6F894DEBF0FBECDBFED0131
:060FC0000895F894FFCF34
:100FC60000040701000100010001000001000125E5
:060FD6006C640D0A00002E
:00000001FF
