:100000000C9435000C945E000C945E000C945E0021
:100010000C945E000C945E000C945E000C945E00E8
:100020000C945E000C945E000C945E000C945E00D8
:100030000C945E000C945E000C945E000C945E00C8
:100040000C941E020C945E000C9435020C945E001D
:100050000C945E000C942D040C945E000C945E00D5
:100060000C945E000C945E00AF0411241FBECFEF11
:10007000D8E0DEBFCDBF11E0A0E0B1E0E0E5F0E107
:1000800003C0C89531960D92A631B107D1F722E091
:10009000A6E1B1E001C01D92A033B207E1F710E084
:1000A000C5E3D0E004C02197FD2FEC2F92D4C433D8
:1000B000D107C9F70E9460000C9426080C94000038
:1000C0000F931F9380E895E20E94BA0001E010E0D0
:1000D00080E00E94B3000E941601C8010E947200D5
:1000E000F7CF00000E94CE0108950E94E20108951A
:1000F0000E94FA0108950E94FF0140E050E09C0137
:10010000BA01CA0108950E94020240E050E09C0139
:10011000BA01CA0108950E94DD0108950E943F01BD
:100120000895833051F0853041F0863031F08930C8
:1001300021F08A3011F08B3059F46170603021F079
:100140006FEF0E94FB02089560E00E94FB02089599
:1001500061700E947601089561700E94A601089561
:100160000E94FB0208950E94FE03089540E00E9451
:10017000650408950E9477020895C9010E94B4029F
:1001800008950E94AD0208950E9402020E94C402D6
:1001900008950E94C40008959C01359527953595D2
:1001A0002795359527953595279535952795359537
:1001B0002795359527953595279535952795359527
:1001C0002795359527953595279535952795359517
:1001D000279535952795BC01C9010E94C400089553
:1001E000682F782F770F770BCB019595879595958D
:1001F00087959595879595958795959587959595E7
:1002000087959595879595958795959587959595D6
:1002100087959595879595958795959587959595C6
:100220008795959587950E94C400089520E030E059
:10023000BC01C9010E94C4000895682F772780E09F
:1002400090E00E94C40008950E94D30208950E9485
:10025000DE020895883060F08E3040F498EF980FF9
:1002600081E001C0880F9A95EAF7089580E008952B
:1002700091E001C0990F8A95EAF7892F0895CF93ED
:10028000C82F0E942A01882331F0C83038F093B17A
:10029000982381E009F480E0CF91089599B19823E3
:1002A00081E0C9F3CF9108950E942A01882321F0AB
:1002B0009BB1809589238BB908950E942A018823D8
:1002C00021F095B18095892385B908950E942A016E
:1002D000882319F09BB1892B8BB908950E942A01BC
:1002E000882319F095B1892B85B90895662321F0EB
:1002F000883030F40C946601883020F00C945D0155
:100300000C946E010C9454010E942A01882319F068
:100310009AB1892B8AB908950E942A01882319F07D
:1003200094B1892B84B908950E942A01882321F071
:100330009AB1809589238AB908950E942A01882359
:1003400021F094B18095892384B90895662351F0F2
:100350008830E0F40E942A018823B9F09AB1892BF1
:100360008AB90895883048F40E942A01882369F0E8
:100370009AB1809589238AB908950E942A01882319
:1003800021F094B18095892384B908950E942A01AF
:100390008823D9F394B1892B84B90895009761F02B
:1003A00020E030E040EA5FE0FA013197F1F72F5F9B
:1003B0003F4F82179307C1F70895809116019091DE
:1003C00017010895E0912701EF3791F091E09E0F1A
:1003D000909327010E2E000CFF0BE85DFE4F8083EB
:1003E000E92F990FFF0BE85DFE4F108281E0089521
:1003F00080E008951092270110922801089588E264
:1004000091E008959F938F937F936F938FE091E096
:100410009F938F931F928FE08F9388E191E09F933A
:100420008F930E94F1048DB79EB70A960FB6F89489
:100430009EBF0FBE8DBF88E191E008951F920F927D
:100440000FB60F9211248F939F9380911601909174
:100450001701019690931701809316019F918F9138
:100460000F900FBE0F901F9018951F920F920FB60E
:100470000F9211242F938F939F93EF93FF9380916B
:10048000A80181111EC0E091A90181E08E0F809327
:10049000A9019091C6000E2E000CFF0BE555FE4FF2
:1004A0009083082E000C990B8F77907897FD13C0DE
:1004B0008093A90191E02091AA01281390E09093E4
:1004C000A801FF91EF919F918F912F910F900FBEF7
:1004D0000F901F901895019780689F6F01968093E9
:1004E000A90191E02091AA012813E8CFE8CF9C014F
:1004F000990F440B550B220F331F441F551F220F1A
:10050000331F441F551F220F331F441F551F220F37
:10051000331F441F551F60E074E284EF90E00E9497
:10052000C204BA01A9014150510961097109BB27EF
:1005300077FDBA95A72F962F852F8093C5004093FE
:10054000C400E2ECF0E0808186608083E1ECF0E0C2
:10055000808188698083789408959091C00095FF88
:10056000FCCF8093C6000895FC012491222359F00A
:1005700031969091C00095FFFCCF2093C600249146
:1005800031962111F6CF0895FC012081222351F0EC
:1005900031969091C00095FFFCCF2093C600219129
:1005A0002111F7CF08959091AA018091A901981780
:1005B00011F081E008958091A80108952091A8018B
:1005C0009091AA018091A901981791F09FB7F89492
:1005D000E091AA0181E08E0F8093AA010E2E000CFB
:1005E000FF0BE555FE4F80811092A8019FBF089533
:1005F0002111ECCFFFCFCF93DF93C82FD62F60917F
:100600000C010E94A601C63009F45BC050F0CA304C
:10061000B9F0CB3009F446C0C93021F1DF91CF9158
:100620000895C33089F1C530C9F784B5DD2309F4D5
:1006300052C0DF3F09F49EC0806284BDD8BDEECFBA
:1006400080918000DD2309F47BC0DF3F09F485C081
:100650008062809380006D2F70E070938B006093B8
:100660008A00DCCF80918000DD2309F45CC0DF3F8D
:1006700009F494C08068809380006D2F70E07093BF
:10068000890060938800CACF8091B000DD2309F40F
:100690003FC0DF3F09F477C080628093B000D09301
:1006A000B400BCCF8091B000DD2339F1DF3F09F405
:1006B0008BC080688093B000D093B300DF91CF915E
:1006C000089584B5DD2381F0DF3F09F474C08068AC
:1006D00084BDD7BDA3CF8F7D84BD60910D0185E022
:1006E0000E94760118BC9ACF8F7784BD60910D016E
:1006F00086E00E94760117BC91CF8F778093B0007F
:1007000060910D018BE00E9476011092B30086CFBC
:100710008F7D8093B00060910D0183E00E9476018F
:100720001092B4007BCF8F778093800060910D0191
:1007300089E00E94760110928900109288006ECFA5
:100740008F7D8093800060910D018AE00E94760188
:1007500010928B0010928A0061CF8F7D8093800071
:1007600060910E018AE00E94760110928B00109237
:100770008A0054CF8F7D84BD60910E0185E00E9478
:10078000760118BC4BCF8F7D8093B00060910E0135
:1007900083E00E9476011092B40040CF8F7780935F
:1007A000800060910E0189E00E947601109289001C
:1007B0001092880033CF8F7784BD60910E0186E060
:1007C0000E94760117BC2ACF8F778093B00060918A
:1007D0000E018BE00E9476011092B3001FCF87E8D4
:1007E00080937A008AE090E00E94CE0161E08DE083
:1007F0000E94A60160E08DE00C947601CF93C82F93
:10080000883038F580917A0087FD0FC087E88093A3
:100810007A008AE090E00E94CE0161E08DE00E94C3
:10082000A60160E08DE00E947601C064C0937C0068
:1008300080917A00806480937A0080917A0086FDAE
:10084000FCCF809178002091790090E0922BCF919D
:10085000089580E090E0CF9108951F920F920FB617
:100860000F9211242F933F934F935F936F937F9336
:100870008F939F93AF93BF93EF93FF9380917A00F1
:10088000877F80937A00E0912E02F0912F023097BB
:1008900059F0809178002091790090E0922B099591
:1008A00010922F0210922E02FF91EF91BF91AF9103
:1008B0009F918F917F916F915F914F913F912F9178
:1008C0000F900FBE0F901F9018950F931F93CF930B
:1008D000DF93C82F162FD72F042F8830E8F480918C
:1008E0007A0087FD0FC087E880937A008AE090E065
:1008F0000E94CE0161E08DE00E94A60160E08DE0E3
:100900000E94760180917A0086FD06C080912E02B9
:1009100090912F02892B31F080E0DF91CF911F91D0
:100920000F910895002359F0812F9D2F97FD15C039
:100930009595879590932F0280932E0204C0109373
:100940002E02D0932F02C064C0937C0080917A0065
:10095000886480937A0081E0E0CF0196E9CF83E05C
:1009600084BD85BD91E09093800080938100909339
:10097000B00084E08093B100EEE6F0E08081816019
:1009800080830895A1E21A2EAA1BBB1BEA2FFB2F1E
:100990000DC0AA1FBB1FEE1FFF1FA217B307E4075E
:1009A000F50720F0A21BB30BE40BF50B661F771FB6
:1009B000881F991F1A9469F7609570958095909596
:1009C000262F372F482F592F6A2F7B2F8E2F9F2F9F
:1009D0000895EE0FFF1FC8950F923196C8950F929C
:1009E0000895AEE0B0E0E6EFF4E006C30D891E899D
:1009F0008F89988D26E02C831A83098397FF02C084
:100A000080E090E801979E838D834C2F5D2F455E9B
:100A10005F4F698D7A8D8C2F9D2F019613D04D815C
:100A20005E8157FD0CC02F8138854217530714F49F
:100A3000242F352F020F131FE02FF12F10822E9637
:100A4000E4E0F6C2ABE0B0E0E7E2F5E0C7C2E82ED2
:100A5000F92E662E772E042F152FE82FF92F1782E7
:100A60001682838181FFFFC18C2F9D2F0196A82EB6
:100A7000B92EEE2DFF2D9381E62DF72D93FDC89510
:100A800093FF00803196802D6E2E7F2E882309F4EF
:100A900048C1853251F493FDC89593FF008031968B
:100AA000802D6E2E7F2E853229F46E2D7F2D90E0C5
:100AB000F6D1DFCF912C212C312CFFE1F31538F04A
:100AC0008B3239F190F4803239F1833269F137FC9D
:100AD00045C020ED280F2A3098F536FE28C0892D14
:100AE0006AE073D2922E980E07C08D32C9F080331F
:100AF00071F7232D2160322EE62DF72D93FDC89539
:100B000093FF00803196802D6E2E7F2E8111D5CFE0
:100B100025C0832D8260382EE32DE4603E2EECCF7D
:100B2000F32DF8603F2EE8CF232D2061E4CF822DF6
:100B30006AE04BD2222E280E832D8062382EDCCF25
:100B40008E3229F436FCEDC0E32DE064E7CF8C361D
:100B500019F4F32DF068E6CF883671F2982F9F7D57
:100B60009554933008F1833609F43FC0833709F474
:100B700043C0833509F076C0402E512E22E0420E4C
:100B8000511CE02FF12FC080D18036FE4DC0692D61
:100B900070E08C2D9D2D6AD1882E992EF32DF06852
:100BA0003F2E042D152D0CC00C5F1F4F2FE3298302
:100BB00088248394912CCA2CDB2CF32DFF773F2EB5
:100BC00033FC05C0822D90E08816990680F1522CE6
:100BD0008114910499F5552009F44BCF6E2D7F2D8A
:100BE00080E290E05CD15A94F6CFE02FF12F808123
:100BF00089830E5F1F4FDCCF402E512EF2E04F0E47
:100C0000511CE02FF12FC080D18036FE0AC0692D23
:100C100070E08C2D9D2D37D1882E992E042D152D09
:100C2000CCCF6FEF7FEFF5CF6FEF7FEFB2CF6E2DB1
:100C30007F2D80E290E033D12A94C4CFEC2DFD2D9E
:100C400037FCC89537FE00803196802DCE2EDF2EE2
:100C50006E2D7F2D90E023D151105A9421E0821AFD
:100C60009108B6CF843611F08936C9F5E02FF12FFF
:100C700037FE2CC060817181828193810C5F1F4F90
:100C8000F32DFF763F2E97FF09C0909580957095C4
:100C900061957F4F8F4F9F4FF0683F2E2AE030E0E5
:100CA0004A2D5B2D2ED1C82ECA1836FE63C0232DC7
:100CB0002E7F822EC91408F09FC034FE05C032FC7E
:100CC00003C0832D8E7E882ED92C56C06081718101
:100CD000072E000C880B990B0E5F1F4FD1CF853765
:100CE000C1F4232D2F7ED22E2AE030E0E02FF12F09
:100CF000D7FE39C060817181828193810C5F1F4F63
:100D00004A2D5B2DFED0C82ECA18FD2DFF773F2E31
:100D1000CCCF932D997FD92E8F3611F148F4883599
:100D2000B9F0EE2DFF2D868197812B96E2E172C1FD
:100D3000803751F08837A9F7D4FE03C0FD2DF46049
:100D4000DF2E20E130E0D2CFE92FE061DE2EF4CFBC
:100D500034FE03C0292F2660D22E20E132E0C6CF18
:100D600028E030E0C3CF6081718180E090E00E5FC9
:100D70001F4FC6CFDC2C832C84FE47C0EC2FFD2FE9
:100D8000EC0DF11D80818033C9F5982D997E892E57
:100D9000E82DE8705E2E83FC47C080FE41C0D2146F
:100DA00008F047C02C0C922C9D1884FE47C06E2D75
:100DB0007F2D80E390E073D082FE07C081FC3BC0B2
:100DC00088E790E06E2D7F2D6AD0C91408F444C0E6
:100DD000CA94D12CFFEFCF1ADF0ACA0CDB1CEC2D12
:100DE000FD2D8291CE2EDF2E6E2D7F2D90E057D0DF
:100DF000AC14BD04A1F7EFCEDC2CBECF82FC02C048
:100E0000D394C6CFD394D394C3CF882D867809F4D6
:100E1000BFCFF6CF6E2D7F2D80E290E040D0D394EF
:100E2000D214C0F3512CC1CFD214E0F7522C5D186C
:100E3000BCCF9C2CBACF88E590E0C4CF882D8678B3
:100E400021F281FE07C08BE287FC8DE26E2D7F2DA3
:100E500090E0BACF80E2F8CF6E2D7F2D80E390E056
:100E60001ED09A94B2CF8FEF9FEF5FCFE82FF92F6C
:100E7000C8953196615070400110D0F780959095DB
:100E80008E0F9F1F0895E82FF92F61507040019039
:100E90000110D8F7809590958E0F9F1F08950F939E
:100EA0001F93CF93DF93182F092FC62FD72F8B8136
:100EB00081FD09C01FEF0FEF812F902FDF91CF91A0
:100EC0001F910F91089582FF15C02E813F818C8163
:100ED0009D812817390744F4E881F9818E2F9F2FCF
:100EE00001969983888310838E819F8101969F83C9
:100EF0008E83E2CFE885F985812F0995892BA1F3AF
:100F0000D9CFE42FF52FAA27283069F1203199F1A4
:100F1000E8946F936E7F6E5F7F4F8F4F9F4FAF4F01
:100F2000B1E041D0B4E03FD0670F781F891F9A1F0E
:100F3000A11D680F791F8A1F911DA11D6A0F711DC8
:100F4000811D911DA11D23D009F468943F91062EA7
:100F5000000C3019000C000C3019305D3193CEF6C6
:100F60008E2F9F2F0895462F4770405D4193B3E029
:100F70000FD0C9F7F5CF462F4F70405D4A3318F0B8
:100F8000495D31FD4052419302D0A9F7E9CFB4E069
:100F9000A6959795879577956795BA95C9F7009720
:100FA000610571050895262F372F482F592F0A2ED6
:100FB00006945795479537952795BA95C9F7620FC7
:100FC000731F841F951FA01D0895002480FD060E29
:100FD000660F11F08695D1F7802D08952F923F92DC
:100FE0004F925F926F927F928F929F92AF92BF9239
:100FF000CF92DF92EF92FF920F931F93CF93DF93E5
:10100000CDB7DEB7CA1BDB0B0FB6F894DEBF0FBE41
:10101000CDBF09942A88398848885F846E847D848E
:101020008C849B84AA84B984C884DF80EE80FD8090
:101030000C811B81AA81B981CE0FD11D0FB6F89406
:10104000DEBF0FBECDBFCA2FDB2F0895F894FFCFB0
:10105000000407010001000100010000010001255A
:061060006C640D0A0000A3
:00000001FF
